:1000000000000120750300005D0300005F03000095
:1000100061030000630300006503000000000000AE
:100020000000000000000000000000006703000066
:1000300069030000000000006B030000850C000055
:10004000D93C00006F030000BD2F0000092A00000A
:10005000F13500006F0300001D3800006F03000041
:100060004126000055260000692600003D3C0000A6
:100070006F0300006F0300006F0300006F030000B8
:100080006F0300006F0300006F0300006F030000A8
:100090006F0300006F0300006F0300006F03000098
:1000A0006F0300006F0300007D2600009126000012
:1000B0006F0300006F03000000000000000000005C
:1000C0006F0300006F0300006F0300006F03000068
:1000D0006F0300006F0300006F03000000000000CA
:1000E0000000000000000000000000000000000010
:1000F0000000000000000000000000000000000000
:1001000000000000000000000000000000000000EF
:1001100000000000000000000000000000000000DF
:1001200000000000000000000000000000000000CF
:1001300000000000000000000000000000000000BF
:1001400000000000000000000000000000000000AF
:10015000000000000000000000000000000000009F
:10016000000000000000000000000000000000008F
:10017000000000000000000000000000000000007F
:10018000000000000000000000000000000000006F
:10019000000000000000000000000000000000005F
:1001A000000000000000000000000000000000004F
:1001B000000000000000000000000000000000003F
:1001C000000000000000000000000000000000002F
:1001D000000000000000000000000000000000001F
:1001E000000000000000000000000000000000000F
:1001F00000000000000000000000000000000000FF
:10020000354936480A1A02D0072291438D463449AF
:1002100034480A1A06D00722914381F30988022242
:1002200082F3148830483149314A00F044F83148AB
:100230003149324A00F03FF831483249324A00F041
:100240003AF832483249334A00F035F832483349F7
:10025000334A00F030F833483349344A00F02BF881
:1002600033483449344A00F026F8344834490022EF
:1002700000F02CF833483449002200F027F83348C6
:100280003349091A082902DB002202604160314A21
:1002900090471F481F49884205D00268043003B4C4
:1002A000904703BCF7E700208646EC46002000217B
:1002B000294A9047FEE7884207D0521A05D00378B2
:1002C00001300B700131013AF9D17047884202D0F8
:1002D00002700130FAE770470000012000F00020B2
:1002E0000000012000000120B056000000000020A6
:1002F00034000020D4030000D4030000944E00001A
:10030000B05600000000002000000020944E0000C5
:10031000944E0000944E0000944E0000944E000055
:10032000944E0000944E0000944E0000AF56000022
:10033000E456000034000020340000203400002087
:100340003005002030050020300500203005002059
:10035000300D00209D030000911A0000FEE7FEE72B
:10036000FEE7FEE7FEE7FEE7FEE7FEE7FEE7FEE765
:10037000704700BF1048804710484FF0070188437E
:1003800085460F4880470F48016841F470010160BD
:10039000BFF34F8FBFF36F8FFFF732BF0A480B4990
:1003A0000B4A884207D0521A05D0037801300B70EF
:1003B0000131013AF9D170477103000000000120BA
:1003C0006522000088ED00E0944E0000000000204F
:0403D0000000002009
:1003D40010B5ADF5007D11490446684603F031FEC1
:1003E400204603F077FEB0F5FB7F0CD221460DF1D9
:1003F400060003F026FE204603F06CFE0630084992
:10040400684403F01EFE684603F064FE0146684635
:1004140000F0E8FB0DF5007D10BD00BF944E000018
:10042400F75100002DE9F04F8BB00446242200213F
:1004340001A803F0D3FD0023CDE90133019BE05C67
:1004440003F050FD019BE05401330193E55C002D62
:10045400F4D12649264F08AB03AA204603F071FDC8
:100464004FF00C0801954FF00109019B08FB03F3C1
:1004740007EB030AFE583EB9029B012B2FD0022B37
:1004840018D00BB0BDE8F08F314603A8554603F0F1
:10049400FAFD00BB03A803F01DFE8346304603F0BB
:1004A40019FE834517D1DAF80430CDF8089093B9D2
:1004B4000223029300F0F0FAAB68089A0146204642
:1004C40098470446099070B103F004FE01462046A3
:1004D40000F088FBD5E7019B01330193C5E705488C
:1004E400FFF776FFCDE70448FAE700BF9D4E000012
:1004F40008510000A54E0000B84E0000D2B20248D8
:100504000A714A71704700BF03510000003A18BFD6
:10051400012201488A71704703510000003A18BF54
:10052400012201480A7270470351000001484A81C0
:10053400704700BF03510000003A18BF0122014870
:100544000A837047035100000148CA60704700BF26
:100554000351000001480A61704700BF03510000C5
:1005640001480A75704700BF03510000003A18BFE4
:100574000122024881F82220704700BF0351000085
:1005840010B510460C4601F08FFC0028CABF20703D
:100594000020014810BD00BF0351000010B51046F3
:1005A4000C4601F0A9FC0028CABF60700020014875
:1005B40010BD00BF0351000010B510460C4601F0F9
:1005C400CFFC0028CABFA0700020014810BD00BFA6
:1005D4000351000010B510460C4601F0A1FC0028A0
:1005E400CABFE0700020014810BD00BF03510000E5
:1005F40010B510460C4601F063FC0028CABFE07138
:100604000020014810BD00BF035100001FB50C4677
:100614000B48694603F080FC684603F05BFD012843
:1006240004F11A040AD8684603F054FD02466946E8
:10063400204603F0AAFC034804B010BD0122F6E7EB
:10064400C24E00000351000030B50B4C0B4DADF50C
:10065400017D54F80C2B1AB909480DF5017D30BD04
:100664002946684603F058FC684603F033FD01460A
:10067400684600F0B7FAECE708510000CB4E0000E2
:100684000351000008B5084600F00CFA004808BD04
:100694000351000030B5284B284918689B88ADF5F4
:1006A400037D02AC45F65A2200902046ADF8043092
:1006B40003F032FC0546204603F00CFD204920449B
:1006C40003F02AFC204603F005FD1E49204403F0F4
:1006D40023FC204603F0FEFC6A461B49204403F039
:1006E4001BFC204603F0F6FC184B194A1949204418
:1006F40003F012FC204603F0EDFC174A174920448E
:1007040003F00AFC204603F0E5FC1549421B0DF1F9
:100714000A0003F001FC7B232046635503F0DAFC56
:100724000146204600F05EFA0E48022100F05AFA13
:100734000D480DF5037D30BD744F0000D14E00000F
:10074400D84E0000E44E0000044F0000164F000095
:100754001F4F00002B4F00003E4F0000644F00006D
:10076400D34E0000F751000003510000F0B5ADF581
:10077400077D06AC0D4645F65A225E49204603F035
:10078400CBFB0646204603F0A5FC5B49204403F05E
:10079400C3FB204603F09EFC0746287801F08EFB3D
:1007A40056490246E01903F0B7FB204603F092FCD9
:1007B4000746687801F0AAFB51490246E01903F0A4
:1007C400ABFB204603F086FC0746A87801F0EEFB5D
:1007D4004C490246E01903F09FFB204603F07AFCE3
:1007E4000746E87901F07EFB47490246E01903F029
:1007F40093FB204603F06EFC2A794449204403F01D
:100804008BFB204603F066FC0746E87801F09EFB6C
:100814003F490246E01903F07FFB204603F05AFCEF
:10082400AA793C49204403F077FB204603F052FCAC
:100834002A7A3949204403F06FFB204603F04AFC2E
:100844002A8B3649204403F067FB204603F042FC20
:10085400EA683349204403F05FFB204603F03AFC86
:100864002A693049204403F057FB204603F032FC48
:100874002A7D2D49204403F04FFB204603F02AFC37
:1008840095F822202949204403F046FB204603F032
:1008940021FCAB7E0593EB7E04932B7F03936B7F4C
:1008A4000293AB7F0193EB7F95F8212020490093BD
:1008B400204495F8203003F02FFB204603F00AFC77
:1008C4001C49821B0DF11A0003F026FB7B232046F2
:1008D400A35503F0FFFB1849204403F01DFB2046F9
:1008E40003F0F8FB0146204600F07CF913480DF5AF
:1008F400077DF0BDD14E00007A4F00008B4F000001
:10090400984F0000A44F0000B14F0000C24F0000F8
:10091400D14F0000DD4F0000EB4F0000FB4F000003
:100924000E500000205000003250000045500000DE
:1009340056500000D34E0000F75100000351000050
:1009440070B504460D461646FFF7A4FE3246294606
:100954002046FFF70BFF014870BD00BF03510000A4
:100964000229F8B5284C06460D463CD8217819B919
:100974002648402203F032FB23783E2B2CD829460C
:10098400304600F02FF9337822780A2B01D00D2B52
:100994000DD1D2B11E4D1D49284603F0F6FA1D4B68
:1009A40022781A800023AB54237001220DE0082B17
:1009B4000DD152B1013AD2B2144B22701648002420
:1009C40003219C5400F00EF900221046F8BD0F4993
:1009D4008B5401322270F7E71048022100F002F92B
:1009E40000222270F1E73E290AD8094F0A4601463F
:1009F400384603F0CAFA074B1D8000237B55D3E722
:100A040007480221EAE700BF7400002034000020F8
:100A140075000020B6000020EC510000F7510000E2
:100A2400F051000000B591B040220021684603F067
:100A3400D5FA4021684600F0E5F8011E12DD89B2BE
:100A44006846FFF78DFF01280CD1084B08481B8826
:100A5400013B3F2B94BFC31800F13F0300225A709F
:100A6400FFF7E0FC11B05DF804FB00BFB600002006
:100A74007500002010B5054C05494FF480722046DE
:100A840003F083FA034B1C6010BD00BF000100207B
:100A94000000070070030020014B1868704700BF76
:100AA4007003002007B5019072B6064801F0DCFF20
:100AB400019904484FF4807202F012F862B603B050
:100AC4005DF804FB0000070038B50378022B0446E8
:100AD40002D1406801F076FA2378012B02D16068D4
:100AE40001F070FA2378042B17D10C4D207901F012
:100AF40023FB00F0F1F8287878B921790D2905D184
:100B040001232B70BDE8384001F016BB044801F006
:100B14003EFB042804BF01232B7038BD10030020C2
:100B240000020020014B1878704700BF100300201A
:100B340030B50F4D0FCD87B06C460FC495E8030058
:100B44004FF4807284E803000A490B4801F010FB5B
:100B540008B101F037FA094A06230021684601F07A
:100B6400A1FA08B101F02EFA00F0B6F807B030BDD2
:100B7400FC5100001002002000020020CD0A0000F9
:100B840008B501F0BBFC01F063FB134B4FF47A7220
:100B94001B68B3FBF2F3013BB3F1807F09D20F4A28
:100BA40053600F4BE02183F8231000239360072345
:100BB40013604FF0A04300200C22C3F84C07C3F885
:100BC4002C27C3F8640701F0B1FCFFF7B1FFBDE8BF
:100BD400084000F091BA00BF1800002010E000E0C7
:100BE40000ED00E070B504460E4605462B1B9E4200
:100BF40000DC70BD287801F09FFA0028FAD1013595
:100C0400F4E70000F8B50F4F04460E4600252146D0
:100C1400384601F0CEFA0134013508B9B542F6D3AD
:100C2400B5424FF000030CBF04F8013C23700A20C6
:100C340001F082FA034801F0CDFA034B00221A7046
:100C44002846F8BD0002002010030020014B0122B9
:100C54001A7070472103002038B5054D044645F04D
:100C640001054FF47A40A847013CFAD138BD00BFD2
:100C740060520000014B1868704700BF2403002035
:100C8400024A136801331360704700BF2403002035
:100C9400054B1B68984288BF03F1FF33181A88423A
:100CA40034BF0020012070472803002008B1FFF75B
:100CB400D3BF704738B54FF0A0444FF40035C4F8A3
:100CC4000C550120FFF7C8FFC4F808550720BDE8FC
:100CD4003840FFF7C1BF0000024B1A68024B1A608C
:100CE400704700BF280300201403002037B528B93B
:100CF4001A4A13680133136003B030BD0428FBD1D2
:100D0400174A184913680968174C0B441360174BAA
:100D140000221A601B680193019B22684FF0A043D4
:100D2400D3F81055C5F3406522B91DB1104B1B68AB
:100D340003B198474FF0A0412560D1F820351B0539
:100D4400DAD50C4B0020C1F82C071870FFF7C4FF4C
:100D54004FF40063C1F82035CAE700BF2C0300201C
:100D640028030020040000200000002000B10040FF
:100D74001803002020030020014B1860704700BFB7
:100D840018030020014B1860704700BF1C030020AB
:100D94002DE9F0470024E8B005468846164621466A
:100DA400C42205A8994604AF049403F017F9C42299
:100DB400214637A80DF1D80A369403F00FF9C8225A
:100DC4002146384603F00AF9C8222146504603F06A
:100DD40005F941462A46384603F0D7F832462146FB
:100DE400781903F0FBF8AA19D2B2DFF8388003921D
:100DF400CDE9012A0A4888F800402246694600974E
:100E040001F076FD98F80030002BFBD032460AEB57
:100E14000501484603F0B9F8002068B0BDE8F08742
:100E240074520000210300202DE9F0470025E8B0AA
:100E3400044690468A46C422294605A81F4604AEA5
:100E4400049503F0CBF8C422294637A80DF1D8093C
:100E5400369503F0C3F8C8222946304603F0BEF89D
:100E6400C8222946484603F0B9F82246514630467E
:100E740003F08BF839464246301903F086F804EB48
:100E84000802D2B2084F0392CDE9012907483D7008
:100E94002A466946009601F02BFD3B78002BFCD0D6
:100EA400002068B0BDE8F0872103002074520000E0
:100EB40038B54FF0A0440F234FF08075C4F8603765
:100EC400C820C4F80C55FFF7C7FEC4F808553220F3
:100ED400FFF7C2FE0023C4F860370220BDE83840A3
:100EE400FFF7BABE1FB50B4B0FCB6C4684E80F005F
:100EF40011238DF80330084A08480023214601F0E5
:100F04005DFB08B101F05EF80220FFF7A5FE04B016
:100F140010BD00BF14520000510C000070520000BC
:100F24001FB50C4B0FCB6C4684E80F0011230A4805
:100F34008DF8033001F0ACFC084A0948002321462F
:100F440001F03CFB08B101F03DF80220FFF784FEFC
:100F540004B010BD2452000074520000510C000073
:100F64007052000008B1FFF777BE704770B58CB0BF
:100F740000233F4A8DF80830044603A803928DF8F5
:100F840010308DF8143001F083FC3A4A13784BB9D1
:100F9400394B47F230511868FFF77AFE054650B1D5
:100FA4000123137001F0DCF84FF0A0434FF44032FA
:100FB400C3F82C270125314BB4F57A7F18689B8838
:100FC400ADF80430CCBF40F63F0220222C4B0090F9
:100FD400CBBFADF80020ADF80020402201221A60FA
:100FE4002848294A6946C8BFA41102F055FD08B132
:100FF40000F0E8FF2348012102F006FE2148012306
:101004002246002102F0BEFD08B100F0DBFF1F4BB9
:101014001F4E1C481F4C01221A600023336002F04B
:10102400A5FD336833B930BF2368002BF9D0984746
:101034000028F6D06DB1184D0FCD06AC0FC495E85D
:101044000300164A84E803000623002106A801F0E1
:1010540029F8134A0B4800233360136843F0020352
:10106400136002F0E1FD074802F05EFD0CB070BDB4
:1010740000300040200300201403002034520000FC
:101084000400002068520000F10C000008B0004089
:101094002C0300201C0300203C520000CD0A000059
:1010A40010E000E0054BD3F80021120344BF4FF4D5
:1010B4000022C3F880200020704700BF00E100E058
:1010C40018B1024B4FF400221A60704700E100E0AF
:1010D400024A20BF1378002BFBD070473003002056
:1010E40003782BB90379012B9EBF024B01221A709E
:1010F400704700BF300300201FB51C211D22CDE91D
:1011040000124FF0CD620292022200238DF80C20CF
:101114000848094AADF80D3069468DF80F3002F0E1
:10112400EFFA08B100F04EFF044802F0B9F905B037
:101134005DF804FB80520000E510000084520000BA
:101144001FB50B4A8DF80C00002313708DF80D1099
:1011540000930848022303AA192102F013FA08B1E4
:1011640000F030FFFFF7B4FF05B05DF804FB00BFEB
:1011740030030020845200007FB500240F4D8DF809
:101184000F000E460E48009401230DF10F021921A1
:101194002C7002F0F7F908B100F014FFFFF798FF84
:1011A40007482C7001233246192102F006FA08B1CF
:1011B40000F008FFFFF78CFF04B070BD300300207F
:1011C40084520000014B1B68186870470800002017
:1011D40007B5C0B251B960F07F008DF8040001205A
:1011E40001A9FFF721FE03B05DF804FB60F03F00A6
:1011F4007F298DF80400C8B285BF60F07F00C9095B
:101204008DF805008DF8050092BF02208DF80610B8
:101214000320E5E708B50B4611460244B2F5806F9A
:1012240005DC821E0920FFF7D3FF002008BD4FF024
:10123400FF30FBE707B5C0B241B98DF804000120C7
:1012440001A9FFF7A5FD03B05DF804FB40F04000E1
:101254007F298DF80400C8B285BF60F07F00C909FA
:101264008DF805008DF8050092BF02208DF8061058
:101274000320E5E713B501AC042280B2234689B20A
:10128400FFF7D8FF03220020A35C013A03EB002000
:10129400FAD202B010BD00210846FFF7EBBF07B534
:1012A400022201AB89B280B2FFF7C4FF9DF805307A
:1012B4009DF8040000EB032080B203B05DF804FB4A
:1012C40007B589B28DF807200DF10703012280B21A
:1012D400FFF77EFF03B05DF804FB07B589B2ADF8F4
:1012E400042001AB022280B2FFF772FF03B05DF865
:1012F40004FB07B589B2019201AB042280B2FFF767
:1013040067FF03B05DF804FB10B5044602780B21B7
:101314002A20FFF7D5FF62680021BDE810401E2097
:10132400FFF7E7BF054B1B68DB6843EAC2320243A1
:1013340042EA815208200021FFF7DBBF08000020A9
:1013440008B5024604212D20FFF7C7FF032206211A
:101354002D20FFF7B5FF06212D200022FFF7B0FF57
:10136400BDE808400A212D20FFF784BF08B50022FC
:1013740002212C20FFF7A4FF0222BDE808401146F9
:101384002C20FFF79DBF0000084B10B51B681A8B7B
:101394000C46024300212C20FFF79FFF2246062122
:1013A400BDE810402C20FFF78BBF00BF08000020D1
:1013B40010B5042104463620FFF75CFF3CB140F42D
:1013C4000062BDE8104004213620FFF792BF20F4EC
:1013D4000062F6E710B56D22044640F606012E20A1
:1013E400FFF76EFF44B140F20762BDE8104041F6DA
:1013F40006012E20FFF771BF41F20762F5E70000F6
:101404002DE9F843067847784279724B013F042E60
:1014140033F812800446FFB200F0BE80F31FD3F10C
:10142400000949EB03096C4DE1792B685A690029DD
:1014340040F0B58042F480025A614FEAD808217A1C
:101444005A699972090401F4403122F440320A4382
:101454005A6100210420FFF74CFF424642F6040182
:101464002E20FFF73AFF3846FFF7B4FF5B4B13F823
:1014740006805B4B072153F828202B20FFF739FF08
:10148400584B0B2113F808202B20FFF719FF564B5C
:101494000B2113F809202820FFF712FF534B0C21CE
:1014A40053F828202820FFF724FFE279A37903EBDF
:1014B40042034F4A022132F813202720FFF70DFF81
:1014C4004C4B042133F817202720FFF706FFE3795C
:1014D400002B68D1642206212720FFF7FEFEE37863
:1014E400454A03EB8703082152F823202720FFF7FE
:1014F40000FF638913B941F241036381DFF800817E
:1015040062892021272008EB4707FFF7E6FED8F879
:1015140000200C212320FFF7ECFE2320BA880421AD
:10152400FFF7DBFEA079002852D0E379334A21206B
:10153400D25C0021FFF7C4FE01220320617906F08A
:101544000F0343EAC16361783601F6B28904334379
:1015540001F440210B432179890501F0F8610B4323
:1015640043EA005343EA424200211F20FFF7C1FE31
:10157400A27863781343E279520342EA03422B6868
:101584000021DA600820FFF7B4FEBDE8F8434222E8
:1015940000210D20FFF794BE4FF0010943E722F428
:1015A40080025A614BE7A378042B0AD1102206214A
:1015B4002720FFF792FE102226212720FFF780FE26
:1015C4008DE7202206212720FFF787FE2822F3E754
:1015D4000246B3E7E65200000800002098520000DB
:1015E400C8520000E05200001853000028530000C5
:1015F4001A530000C0520000A0520000C452000060
:101604009052000070B50D4C002105460420266858
:10161400FFF730FE216870614A69234655B122F410
:1016240080221B684A61BDE870405A690021042089
:10163400FFF75FBE42F48022F3E700BF08000020FA
:1016440010B5034C2468C4E90A01C4E90C2310BD95
:101654000800002013B50222044601AB0021362005
:10166400FFF7E8FD0E2C12D8DFE804F0200829115A
:10167400111111303D1111464B50570000238DF8C4
:1016840004309DF8053023F001038DF8053001ABDB
:10169400012200213620FFF79BFD01220DF10503F5
:1016A40011463620FFF794FD02B010BD9DF80430BA
:1016B40023F0030343F001038DF80430E7E79DF8BA
:1016C400043023F0030343F00203F5E79DF80430EC
:1016D40023F04C0343F048038DF804309DF80530A3
:1016E40063F07F03D1E7BDF8043023F4004323F013
:1016F4004C03ADF80430CAE79DF8053043F002030B
:10170400C3E79DF8053023F00203BEE79DF80430DB
:1017140023F0300343F02003CEE740F20133E8E73F
:1017240008B50E20FFF796FF4FF4004206212D2046
:10173400FFF7D3FD0120FFF715FCBDE808400120A9
:10174400FFF788BF08B50020FFF784FFBDE8084015
:10175400002204213620FFF7C0BD000010F0020271
:1017640010B504D0124B1B6801229A76802210F027
:10177400010414D042F0060200210D20FFF7A0FD61
:1017840003210F20FFF78BFD10F4816006D00D209C
:1017940040220021FFF794FD4FF0FF3010BD0D20D3
:1017A40042F002022146FFF78BFD2046F6E700BF18
:1017B4000800002008B5FFF7C5FF002211462C20C1
:1017C400FFF78BFD002206212C20FFF779FDFFF7A0
:1017D400CDFD002203213620FFF772FD0120FFF723
:1017E400C1FBF02203213620FFF76AFD024B1B6880
:1017F40000229A7608BD00BF0800002000F01F00F8
:1018040040F060020E212B20FFF75ABDF8B53B4C87
:1018140023680025C3E90A55C3E90C555D749D7618
:101824001D830646FFF737FD354B984263D1FFF71A
:10183400C1FF2846FFF70EFF294604222420FFF7A4
:101844003FFD1E20FFF77CFD2368C0F307220546F9
:10185400DA720420FFF774FD10F0FF0F09D00222A2
:1018640012212D20FFF72CFD2268138B43F48053A3
:10187400138306202768FFF763FD38600720276875
:10188400FFF75EFD78600820FFF75AFD23681872A1
:101894000920FFF755FD236815F01F050ABF102224
:1018A4001D741A745872187CFFF7A8FFF30716D535
:1018B400FFF736FF2268138B43F400631383012080
:1018C400FFF7C8FE00220A212C20FFF7F9FC0021B3
:1018D40004202468FFF7CEFC60610020F8BD0521D8
:1018E4003620FFF7DCFC4FF6FF520240052136207C
:1018F400FFF7F3FCE3E74FF0FF30EFE708000020C9
:101904003001CADE014B01221A7070476C030020BB
:1019140037B505460C4620202721FFF711FC01218D
:101924002120FFF70DFC40212220FFF709FC0821AC
:101934002320FFF705FC0F4B022119700E4B0422E4
:1019440032201A70FFF7FCFB29463320FFF7F8FB1F
:101954000A4B0022082124201A70FFF7F1FB0DF135
:1019640007012620FFF708FC21463020FFF7E8FB9B
:1019740003B030BD6D0300206E0300206C03002013
:1019840008B50A20FFF792F980212420FFF7D8FB3D
:101994000A20FFF78BF908212320FFF7D1FB202031
:1019A4001921FFF7CDFB044B044800221A70BDE84F
:1019B4000840FFF7E1B900BF6C03002009190000DB
:1019C40007B50F200DF10701FFF7D6FB9DF80700BF
:1019D40003B05DF804FB00212020FFF7B1BB2A21EE
:1019E4000020FFF795BF15211E20FFF791BF0000CF
:1019F400014B1878704700BF6C030020014B002294
:101A04001A7070476C03002007B531200DF10701EF
:101A1400FFF7B2FB9DF8070003B05DF804FB08B5BF
:101A2400FFF7E6FF18B9BDE80840FFF77BB808BD2B
:101A340070B5FFF737FB0646FFF754FA00F062F97A
:101A4400104DA84208D1012000F024F9041E0ADA3E
:101A54004FF0FF34204670BDFFF72CF900F052F927
:101A6400A842F0D0F4E7FFF75BFA00F04BF9A84284
:101A7400EED1054B186800F047F93046FFF720FB1C
:101A8400E8E700BF3001CADE70030020444A2DE9B4
:101A9400F843012100234FF0A04003240133202BFD
:101AA40064D1404F4FF0A0440021C4F808253846C3
:101AB400C4F80C15102202F091FAFFF761F8FFF751
:101AC400F7F9FEF7D7FFFEF7E7FF3860FFF7B0FF3F
:101AD400002861DB0123C7E901333B68DFF8CC80D0
:101AE400DB68FB60FFF74CFFFFF76AFFFFF773FF4C
:101AF400FFF775FF2C48FFF745F9C146FEF7CCFF09
:101B040098F80030012B01BF4FF08043C4F80C3526
:101B14000023C4F808350646FFF76AFFA0B1FFF7B3
:101B24006DFFFFF771FF10F02A0528D04FF08043B6
:101B3400C4F80C350023C4F80835F368FB60FFF7DC
:101B440052FF012389F80030FEF7ECFF40B1FEF7A5
:101B540069FF4FF00043C4F808350023C4F80C357E
:101B6400BB68002BCAD000F00DF9C7E701FA03F5F2
:101B740015421CBF03F5E07540F825408EE7336934
:101B8400FB604FF08043C4F80835C4F80C55FFF7E8
:101B940026FF89F80050D7E74FF0FF30BDE8F883FF
:101BA400004040C070030020231A0000800300207E
:101BB400704770477047704730B5154A85B0516813
:101BC4000546106802AB03C3FEF766FF90F82230A7
:101BD40004460A351A34B3B9FFF7F4FA04220DEBBC
:101BE4000201019002A802F0D0F908220DEB0201D3
:101BF400284602F0CAF908220DEB0201204602F041
:101C0400C4F905B030BD082221462846F7E700BFD5
:101C14004053000070B50568012D04460CD0022D18
:101C24001ED065B9FFF7C8FF052140F24110FFF748
:101C3400ABFB0223236002E0042902D04560606804
:101C440070BDFFF728FB124B98424FF002054FF08E
:101C5400000602D1C4E90056F1E7FFF72BF8F9E7D3
:101C6400C5230372837D43725A1C827500F10801F7
:101C740000220C20FFF7CEFA002211460C20FFF7B9
:101C840051FB0020FFF76AFD65600123D2E700BF26
:101C94003001CADEF8B50746FEF7FEFE144D0024F7
:101CA40006462C60FFF786FD2046FFF7AFFD04468D
:101CB400CFB105214FF41460FFF766FB308B003879
:101CC40018BF0120FFF79EFC0120FFF771FB64B9E8
:101CD400084B094A09490A48FFF7B2FCEC822C83F5
:101CE400AC762046F8BD0421E4E74FF0FF34F8E772
:101CF40084030020B91B0000B71B0000BB1B0000BD
:101D0400B51B0000FFF7C7BA13B50446FFF778FB0D
:101D140023780F4A0C21594303EB4303515C8DF89C
:101D24000010617801390B4402EB83035968238B5B
:101D340001913BB9CAB2130403EB0163134403EBEF
:101D4400022301936846FFF7DFFA02B010BD00BF1B
:101D54004853000010B5FFF7C5F8FFF79CFA084C8C
:101D6400A04203D0FEF7A6FFFFF795FAFFF7D8F8D5
:101D7400FFF791FA001B18BF4FF0FF3010BD00BFF2
:101D84003001CADE2DE9F041454C00256560E77D50
:101D9400FEF782FE2646804639463046FFF73AFF74
:101DA4001FB1637EE575013B637638B1277E3FB191
:101DB400637E2576013B3846637665600746EBE72C
:101DC400022867D198F81450364B322D28BF32259B
:101DD400012DDE6838BF012502F08EF805FB06F3FD
:101DE4006D006422B0FBF5F1B3FBF2F301FB1505C2
:101DF40033447543B5FBF2F55D1BA5F10F000028D4
:101E040014DCFEF737FF0123A3760023E06163604F
:101E1400E569FEF72FFF85423FD8637E00205A1CF8
:101E2400A07662761C440423E37516E063284FF021
:101E3400A04614DCD6F80435DA4302F0004203F07D
:101E44000043C6F80825C6F80C35FFF78FF8FFF7EE
:101E540081FF0028D5D04FF0FF30BDE8F0814FF06E
:101E64000048A5F14100C6F80885C6F80C75FFF7CF
:101E74007DF8FFF76FFF05460028ECD1C6F80C8506
:101E8400C6F808053220FFF771F8C6F80885C6F8C9
:101E94000C55DCE7A37E012BBAD00020DDE700BFA0
:101EA4008403002070030020013804289ABF024BE9
:101EB40018564FF0FF307047A8530000FFF7F4BFE7
:101EC40040F25233984208D041F69A23984206D001
:101ED4006E3818BF4FF0FF30704701207047022062
:101EE4007047000002289ABF024B33F910004FF0EC
:101EF400FF30704714540000102805D0402814BF48
:101F04004FF0FF300220704701207047012805D0B0
:101F1400022814BF4FF0FF30402070471020704754
:101F240020280ED007DC08280DD0102814BF4FF04D
:101F3400FF3001207047402814BF4FF0FF300320CA
:101F440070470220704700207047000003289ABFA2
:101F5400024B18564FF0FF30704700BFAD530000DE
:101F6400B0F5007F18D00ADC802817D0B0F5807F48
:101F740016D0402814BF4FF0FF3004207047B0F54E
:101F8400C06F0FD0B0F5006F0ED0B0F5806F14BFE6
:101F94004FF0FF30082070473420704714207047FA
:101FA40024207047182070472820704704383028B0
:101FB4009ABF034B33F910004FF0FF30704700BF56
:101FC400B25300001FB50021039001AA44F201009E
:101FD400CDE9011100F004F805B05DF804FB000040
:101FE40072B6094B1B68DB0700D500BEBFF34F8FE9
:101FF4000649074BCA6802F4E0621343CB60BFF39F
:102004004F8F00BFFDE700BFF0ED00E000ED00E002
:102014000400FA0572B6024A13680133136070476C
:10202400A8030020034A1368013B136003B962B696
:10203400704700BFA8030020FFF7ECBFFFF7F2BF13
:1020440013B50478012C13D104238DF800304368B0
:1020540010491B7810488DF80430224600F034FFF4
:102064000E4B1C700E4B68461B68984702B010BD9F
:10207400022C09D1C368074907488DF800400122A2
:10208400019300F021FFEDE7002CEFD103238DF83D
:102094000030E7E7B003002010000020B103002067
:1020A400AC030020F0B51D4E044617469C460FCEE7
:1020B40089B06D460FC596E80F0085E80F00636987
:1020C4000693237C8DF81CC0003B18BF01238DF8B8
:1020D4001430637C1248002B14BF0E2300238DF8A8
:1020E4001530E3680293A36803932368019363683C
:1020F40000930C4B1F600C4B00221A7069460B4A6C
:1021040000F016FD38B92368013304D008490948A2
:10211400012200F0D9FE09B0F0BD00BF1C5400003C
:102124000C000020AC030020B10300204520000077
:10213400B003002010000020074908B501220870F0
:10214400064800F07BFE112803D0002818BF0320A6
:1021540008BD0420FCE700BFB203002010000020EB
:1021640008B5024800F00AFE002008BD1000002057
:1021740049B152B1531E1A4007D182600160838075
:10218400C260104670470E2070470920704710B592
:102194008468C2688388121B934208D3C2681340C0
:1021A4000268D154C3680133C360002010BD042009
:1021B400FCE78268C3689A420AD082688388134025
:1021C4000268D35C0B70836801338360002070471E
:1021D40005207047C3688360002070470C4B1B7850
:1021E400062B10D10B4B1B681A070CD10A4B18682D
:1021F40000F0F003302B08D000F0E000A0F1400321
:10220400584258417047002070470120704700BF72
:10221400E00F00F0E40F00F0E80F00F0094B1B782A
:10222400062B0CD1084B1B681A0708D1074B1868FA
:1022340000F0F000A0F130035842584170470020EC
:10224400704700BFE00F00F0E40F00F0E80F00F06B
:10225400014B024A1A607047180000200090D00316
:1022640008B5FFF7BBFF28B17D4B7E4A1B68C3F35B
:1022740004231360FFF7D2FF10B17B4B7B4A1A6033
:10228400FFF7ACFF28B17A4B7A4A1B68C3F3423399
:102294001360FFF7C3FF20B1774AD36823F080733C
:1022A400D360FFF79BFF40B14FF080430022C3F897
:1022B4000C21C3F81021C3F83825FFF7AFFF10B184
:1022C4006E4B03221A60FFF7A9FF40B16C4B052245
:1022D4001A6001229A6700229A603F225A60694B71
:1022E4001B78062B50D1684B1B6819074CD1674BE0
:1022F4001B6803F0F003502B46D14FF08052644B1F
:10230400D2F80414C3F82015D2F80814C3F824151D
:10231400D2F80C14C3F82815D2F81014C3F82C15ED
:10232400D2F81414C3F83015D2F81814C3F83415BD
:10233400D2F81C14C3F84015D2F82014C3F844157D
:10234400D2F82414C3F84815D2F82814C3F84C154D
:10235400D2F82C14C3F85015D2F83014C3F854151D
:10236400D2F83414C3F86015D2F83814C3F86415DD
:10237400D2F83C14C3F86815D2F84014C3F86C15AD
:10238400D2F84424C3F87025FFF728FF28B1414B45
:10239400414A1B6803F04F031360FFF71FFF48B166
:1023A4004FF08043D3F80024D20744BF6FF00102FA
:1023B400C3F80024394B1B68062B08D1384B1B6823
:1023C400062B01BF374A136843F480631360364A0F
:1023D400D2F8883043F47003C2F88830BFF34F8FCB
:1023E400BFF36F8F4FF01023D3F80022002A03DBD2
:1023F400D3F80432002B2FDA2C4B0122C3F8042526
:10240400D3F80024002AFBD04FF010221521C2F883
:102414000012D3F80024002AFBD04FF01023152219
:10242400C3F80422214B1A46D3F800140029FBD028
:102434000021C3F80415D2F80034002BFBD0BFF3FD
:102444004F8F19491A4BCA6802F4E0621343CB60F8
:10245400BFF34F8F00BFFDE7164B174A1A6008BD44
:10246400240300104035014074C007400DF0ADBA9C
:10247400440200103C050040F0ED00E0A0050040DF
:1024840010560040E00F00F0E40F00F0E80F00F0F9
:1024940000C0004058020010E40E0040300100105B
:1024A400340100103C17004000ED00E000E0014062
:1024B4000400FA05180000200090D00338B5074C3A
:1024C400051E04F1080318BF1C4623682BB11A68C3
:1024D40022605B6828469847F7E738BDBC030020B4
:1024E40020B9054B01225A70FFF7E8BF012802D139
:1024F400014A9070F8E77047B403002038B5094CDE
:1025040023786BB908486360A3602361E36001F03A
:1025140045FA054601F04EFA01232370284638BDDA
:102524008525FBE7B4030020E524000038B5134CEF
:10253400A378054603F0FF0073B115B16B68012061
:1025440098470020FFF778FDE3680133E36000203B
:10255400BDE83840FFF772BDFFF76EFD25B1226973
:1025640013463BB92A602561E368002BECD101F0E6
:1025740039FAE9E79D42F7D01B68F2E7B40300207B
:102584007FB503788DF804304368029383688DF82F
:102594000C30C36804930369064A8DF81430064B63
:1025A40001A853F8213052F82110984707B05DF87C
:1025B40004FB00BFC8030020D403002030B4084D3E
:1025C40010F8044B45F82420064D45F824302346E2
:1025D400054C002A18BF224630BC00F095B800BF55
:1025E400D4030020C8030020852500002DE9F3470B
:1025F400002406460F46904600F5A0754FF4803936
:10260400A246A00000F5A07398B22B686BB1D6F86F
:10261400043309FA04F21A4207D0C5F800A02B6863
:102624000193019BD7E9003198470134A04505F196
:102634000405E6D102B0BDE8F08700000249034872
:102644000422FFF7D3BF00BFE00300200080004056
:10265400024903480422FFF7C9BF00BFEC0300206E
:1026640000900040024903480422FFF7BFBF00BFA7
:10267400F803002000A00040024903480622FFF7A7
:10268400B5BF00BF0404002000A001400249034874
:102694000622FFF7ABBF00BF1004002000B00140CA
:1026A40037B5D0F818358A69DBB28DF807304B6A34
:1026B40093423EBF4A699DF80740D4544A6A91F850
:1026C4002840531C4B6202323CB10C69A2428C6913
:1026D40038BF0A61944288BF8A610D69954205D961
:1026E400CB689B5CC0F81C3501200BE08C699442DC
:1026F40002D991F82030F5E7AB42F5D3A3422CBFC1
:102704000020012003B030BD2DE9F04704795E4D6F
:102714002C266643AF1997F81CC0BCF1000F40F09B
:10272400B080AA517B6091F800E00F7B4FF0A0438A
:10273400012606FA0EF6012F94BFC3F80C65C3F800
:1027440008650EF5E0764FF0010C43F826C04E788C
:10275400FF2E1FBF0CFA06FCC3F80CC506F5E07C7F
:102764004FF0030818BF43F82C808B7808BF4FF054
:10277400FF36FF2B1FBF03F5E07C4FF0A0494FF05D
:10278400040A49F82CA04FF02C0C0CFB045C18BF75
:1027940098468CF81F30CB7808BF4FF0FF38FF2BDA
:1027A4000DD04FF0A0494FF0010C0CFA03FCC9F80E
:1027B40008C503F5E07C4FF0030A49F82CA04FF05C
:1027C4002C0C0CFB045C8CF81E3003688868C3F87E
:1027D40008E5C3F80C65C3F81085C3F82405487BE5
:1027E400003818BF0120022F45D0032F46D0012FF7
:1027F40001D140F00200C3F854052C2000FB045022
:102804004E7980F8206012B10420C3F8040301203B
:10281400C3F8000532B343F30732002A0979B4BF81
:102824001A4802F16040C3F307334FEA5212B8BFAB
:1028340003F00F064FEA4111A8BF00F561404FEACB
:102844008202C9B202F16042B4BF815580F800131C
:1028540002F5614203F01F03012101FA03F3C2F8F8
:10286400803113602C2303FB045400200123607780
:102874002377BDE8F08740F00400BCE740F0060091
:10288400B9E70820F5E700BF1C04002014ED00E0C0
:1028940030B50379144A00682C215943515869B161
:1028A40040F30731C0F3043549090124AC40203119
:1028B4000E4D45F821400421C0F808132C2101FBDA
:1028C4000321C97FFF291FBF01F5E0714FF0A04428
:1028D400022544F821500021C0F800152C2000FBEB
:1028E4000323197730BD00BF1C04002000E100E081
:1028F4002DE9F7430779424D2C237B439046EA1890
:102904000E46517F8646002977D155F803C0BCF1A5
:10291400000F01D00123537796E80F002C2404FB09
:10292400075404F10C0989E80F00A27F0023FF2A51
:1029340084F828301FBF012393404FF0A042C2F80F
:102944000C352C23B8F1000F09D003FB07530022E8
:102954005A774FF00608404603B0BDE8F083DEF82E
:1029640000400422C4F8082303FB0753C4F8088179
:10297400D4F80821C3F824800092009A726882B1C6
:1029840033681B78C4F81C35012A0DD933685B7889
:10299400C4F81C35BCF1000F0FD00423C4F8043371
:1029A400D9E793F82030EDE7F368012BF2D92C2313
:1029B40003FB075393F82030EAE72C2107FB01516E
:1029C4006646D4F80831002BFBD0C4F80861D4F86B
:1029D400083101932046019BFFF762FE0028F0D1E5
:1029E4002C2303FB0755AA7FFF2AB4D0012393406D
:1029F4004FF0A042C2F80835ADE74FF01108AAE73E
:102A04001C04002007B5104B1049114800221A601D
:102A14001B680193019BFFF743FE90B98A7F0D4821
:102A2400FF2A1FBF012393404FF0A042C2F808358C
:102A340000234B770B72D1E9003103B05DF804EB4E
:102A4400184703B05DF804FB083100401C04002063
:102A54000030004024040020024AD2F80034002B45
:102A6400FBD0704700E001400A4908B50223C1F8D1
:102A74000435BFF36F8FBFF34F8FC1F80805FFF71D
:102A8400EBFF0023C1F80435BFF36F8FBFF34F8F03
:102A940008BD00BF00E0014038B520F00305C000C8
:102AA40000F01800FF2303FA00F22B680B4C23EA12
:102AB40002030122C4F80425BFF36F8FBFF34F8FC5
:102AC40081400B442B60FFF7C7FF0023C4F8043593
:102AD400BFF36F8FBFF34F8F38BD00BF00E00140DD
:102AE40070B58D180C46461AAC4200D170BD301931
:102AF40014F8011BFFF7D0FFF6E700001FB50378B9
:102B04008DF800304368019383688DF80830C368FA
:102B1400054A0393054B684653F8213052F82110B7
:102B2400984705B05DF804FB480400204C040020DD
:102B3400F0B506460F4B16F804CB43F82C200E4B89
:102B440017460C460A6943F82C200FCC89B06D4611
:102B54000FC594E80F00002F85E80F00074ACDF851
:102B640010C008BF3A466946304600F057F809B02D
:102B7400F0BD00BF4C04002048040020012B0000DD
:102B84000023435082B043580193019B02B0704725
:102B94000A4610B54FF48E71FFF7F2FF136A91687D
:102BA400C95C136A01331362C0F81C1510BD0246D8
:102BB40008B500684FF49271FFF7E2FF4FF4847197
:102BC4001068FFF7DDFF136801221A6008BD8B69E6
:102BD4000A4610B54FF4847123B9FFF7D1FFD0F83A
:102BE400183510BDFFF7CCFF536AD168D0F818052B
:102BF400C854536A01335362F3E700001FB501233D
:102C04008DF80030044BCDE90110D3E90012684679
:102C1400904705B05DF804FB500400202DE9F04115
:102C2400534E047905462C2000FB046090F82A00DA
:102C3400002840F09B8008682B68471C0BD04FF09D
:102C4400A04C01278740CCF8087500F5E0774FF0D9
:102C5400030E4CF827E0D1F804C0BCF1FF3F1FBFBE
:102C64000CF5E0774FF0A04E4FF000084EF82780A7
:102C74008F69C3F8247591F814E04F7DBEF1010FFC
:102C84004EEA0707C3F86C75C3F814C5C3F80C05FE
:102C940020D18F68781C1FBF07F5E0704FF0A04C5F
:102CA4004FF0000E4CF820E0C868B0F1FF3F0DD0A3
:102CB4004FF0A04E4FF0010C0CFA00FCCEF808C502
:102CC40000F5E07C4FF003084EF82C80C3F80805AB
:102CD400C3F810752C236343F01842600869F05060
:102CE40092B30A7F28684FF48E71FFF749FF286872
:102CF4004FF4A271FFF744FF2B681E49C3F8041375
:102D0400190B43F30733002BA8BF03F160404FEACC
:102D14005313BCBF01F00F0717484FEA4212A8BF74
:102D240000F561404FEA8303D2B203F16043B4BFBC
:102D3400C25580F8002303F5614301F01F0101220D
:102D44008A40C3F880211A602B680422C3F8002546
:102D54002C2303FB04630020C3E90600012283F84B
:102D64002900586183F82A20BDE8F0810820FBE798
:102D7400500400208000020014ED00E0F0B5036868
:102D840002792B480021C3F800152C2101FB020114
:102D9400496869B12749C3F8081343F30731C3F3FA
:102DA400043549090124AC402031234D45F8214024
:102DB400D3F80C65D3F81455D3F80815D3F8104597
:102DC4004FF0FF37BE42C3F8147518BF06F5E0761E
:102DD400C3F80C75C3F80875C3F810751EBF4FF01F
:102DE400A043022743F826706E1C1FBF4FF0A04378
:102DF40005F5E075022643F82560651C1FBF04F540
:102E0400E0744FF0A043022543F824504B1C1FBF2D
:102E14004FF0A04301F5E071022443F821402C2334
:102E240003FB0203002283F82A205A60F0BD00BF8E
:102E3400500400208402020000E100E02DE9F84380
:102E4400204B07794FF02C0909FB073405466669C6
:102E54009846002E33D100686261A16026624FF467
:102E64008E7184F82860FFF78BFE28680123836045
:102E74002146FFF78DFE6368A14683B92868226A5C
:102E840063699A4211D32B68D3F81C21002AFBD022
:102E94000122DA602C2303FB078300225A613046A7
:102EA400BDE8F88394F828303BB9D0F81C31002BE6
:102EB400F8D04946FFF76CFEE1E70F26EAE7112652
:102EC400EDE700BF500400202DE9F843394F0579A0
:102ED4002C2303FB057306465C6824B103684FF496
:102EE4000170C3F808032C2303FB0573986950B1E0
:102EF400D86900283ED024B133684FF40172C3F876
:102F04000423112433E09A61D9605862D8612C23D8
:102F140003FB057393F829301BB910B93046FFF74A
:102F240046FE4FF02C0909FB05783068D8F80430C8
:102F3400002B34D14FF4A271C146FFF721FE306853
:102F4400D0F82431D0F80821D0F84441B2B90CB9F2
:102F5400002BF4D02C2202FB05750022AA6123BBAE
:102F64002CBB95F8291033680122B1B11A602046B0
:102F7400BDE8F8831961DA610120C8E7002BE9D1C3
:102F8400002CE7D14946FFF722FED8F82430D8F8C0
:102F940018209A42D3D82346DCE75A60E7E74FF477
:102FA4000173C0F804330024E1E70324DFE70F24AE
:102FB400DDE700BF5004002030B54B48D0F804339F
:102FC40013F4007F85B005464DD0D0F82431002B92
:102FD40049D04FF49271FFF7D3FD4FF40173C0F859
:102FE4000833424B93F829200AB9012242603E4932
:102FF40002228DF80020D1F88024C1F880240392A5
:103004009A690292DA6801920022C3E906226846AC
:10301400D3E9001290473448D0F81C315BB13349EE
:103024000A6A4B699A420A464AD291F82830002B20
:1030340046D1FFF7ADFD2C48D0F844318BB14FF4A5
:10304400A271FFF79DFD294B93F829200AB10122B3
:1030540002609A692AB10022586AD9689A61FFF716
:10306400CDFD05B030BDD5F804335B07D3D5D5F815
:103074000831002BCFD01D4C1B482146FFF7A7FD7C
:10308400636AA2699A422346C5D1E269E1684AB1FA
:103094002369E3600023606AA261E3616362FFF76E
:1030A400ADFDB8E794F829200AB901226A600E4AF6
:1030B4004FF40170C2F808030022586A9A61EEE7DF
:1030C4004FF48E710848FFF75BFD51690029B2D0B7
:1030D4000023029191688DF8003001915361684694
:1030E400D2E900139847A6E70020004050040020CE
:1030F4000023435082B043580193019B02B07047B0
:103104002DE9F0470E78089F9DF824A004460D464B
:103114009846002E5ED1D0F82431D2F800903BB10D
:103124004FF49271FFF7E4FF012363612B7017E002
:10313400D0F81C3153B34FF48E71FFF7D9FFD0F898
:1031440024311BB14FF492712046EBE713689F4280
:1031540012D918F80330C0F81C3513680133136012
:10316400B94535D1D4F8043193B34FF48271204674
:10317400FFF7BEFF002604E00123BAF1000F03D0DD
:10318400C3613046BDE8F0874361E9E7D0F8083110
:10319400002BE5D04FF48471FFF7AAFFD0F8243157
:1031A400002BCFD113689F42DAD9D0F8181508F84C
:1031B40003101368013313607A1E934205D102236E
:1031C400C0F8003201232362CAE79F42FAD1C7E75D
:1031D4000126D6E74FF49271FFF78AFF4FF48E7100
:1031E400FFF786FF4FF48471FFF782FFBAE7000010
:1031F4002DE9FF470C4605461F4620463B4B0393EB
:103204004FF4827116469DF83080FFF771FF4FF43A
:103214009271FFF76DFF4FF48E71FFF769FF4FF462
:103224008471FFF765FF0023C4F800326B6385F8EF
:103234002E3001232362A3606A6B97421DD9B35CCD
:10324400C4F81C356B6B01336B632B68E3B905F170
:10325400340A05F12E09039B002B1FDC95F82E3050
:1032640053BB0020039B002B15DC0023C4F800355E
:103274000523C4F8003503200DE0B8F1000F01D098
:10328400E361E2E76361E0E740F28623AB60AB68A9
:10329400C4F80433002004B0BDE8F087CDE9007819
:1032A4003346524649462046FFF72AFF0028D5D028
:1032B400039B013B0393CEE7D4F8C434C4F8C4346D
:1032C400002BCED013F0010F14BF4FF402400320A3
:1032D40048F2012213F0020F18BF104613F0040F36
:1032E40048F2022318BF1846BCE700BFA0860100BD
:1032F4002DE9FF470C4605461E462046354B0393F1
:103304004FF482719046FFF7F3FE4FF49271FFF78A
:10331400EFFE4FF48E71FFF7EBFE4FF48471FFF76D
:10332400E7FE0023012E2F686B6385F82E3008BF5B
:1033340002224FF001030CBFC4F80022C4F800328B
:1033440023622360AFB905F1340A05F12E09039B0A
:10335400002B18DC95F82E301BBB0020039B002BA0
:103364000EDC0023C4F800350523C4F8003503201F
:1033740006E040F28623AB60AB68C4F80433002057
:1033840004B0BDE8F087CDE900674346524649469C
:103394002046FFF7B5FE0028DCD0039B013B0393D6
:1033A400D5E7D4F8C434C4F8C434002BD5D013F012
:1033B400010F14BF4FF40240032048F2012213F01E
:1033C400020F18BF104613F0040F48F2022318BF6F
:1033D4001846C3E7A0860100F0B506792E4D4FF0DC
:1033E4003C0C0CFB06FC05EB0C0494F82D70002F30
:1033F40050D163604B7BA76084F8307084F82F70E1
:1034040084F838300C6845F80C204FF0A04704F5D8
:10341400E07340F20C6C47F823C04B68006803F576
:10342400E07E47F82EC0C0F80845C0F80C358B681C
:10343400C0F8243532B340F307330A7B002BA8BF0E
:1034440003F16041C0F307304FEA5313BCBF00F0EF
:103454000F0412494FEA4212A8BF01F561414FEA35
:103464008303D2B203F16043B4BF0A5581F8002349
:1034740003F5614300F01F00012202FA00F0C3F8D3
:10348400800118603C2303FB0655012385F82D3089
:103494000020F0BD0820FCE77C04002014ED00E0CF
:1034A400026803790521C2F80015044A3C2101FB96
:1034B4000323022283F82D20704700BF7C040020E0
:1034C4002DE9F74F2D4E0779D0F800902C4BC9F811
:1034D40008333C2505FB0765C7EB071C95F82F301F
:1034E4008E46144606EB8C0C03F0FF0B33B1AB682D
:1034F400C9F80433112003B0BDE8F08F82F004034F
:10350400C3F3800385F82F302A628A46BAE80F0095
:1035140005F10C08A8E80F00DAF80030C8F800300C
:10352400DEF80430AB62DEF80C206A629EF801100B
:10353400C9F888159EF80010012917D0A1B9C4F361
:1035440040143C2101FB0761604681F82C40009443
:103554004946FFF74DFE3C235F43F219F359002B14
:10356400C9D182F82F30C6E70124EAE785F82CB0E8
:1035740049466046FFF7BCFEEDE700BF7C0400202F
:1035840086420400F0B587B004460F461546002174
:10359400142201A81E4600F021FD9DF830308DF85C
:1035A4000570002B14BF2022002201A92046029698
:1035B4000495FFF785FF07B0F0BDF0B587B004466A
:1035C4000F4615460021142201A81E4600F006FDF0
:1035D4000123002201A920468DF804308DF80570DE
:1035E40002960495FFF76CFF07B0F0BDF0B52E4CC2
:1035F40089B094F82C300193A36A0093636A04F1B0
:10360400340204F12E014FF04020FFF779FD2746E4
:10361400E8B994F82EC0266ABCF1000F1FD1217BB3
:103624008B1E012B1BD8626AA3699A4217D1E269E7
:1036340063696262C6F340160329A36284F82C60AE
:1036440007D100964FF040212046FFF7D1FD09B085
:10365400F0BD4FF040212046FFF74AFEF7E7134D37
:103664000FCD03AC0FC42B682360BCF1000F18D03E
:103674004FF04022D2F8C434C2F8C43499070CD5B0
:1036840001238DF80830002387F82F307307DED428
:10369400D7E9003102A89847D9E75A07F3D502239E
:1036A400EFE78DF808C0EEE77C04002088040020D2
:1036B4001FB503788DF800308388ADF80430836833
:1036C4008DF80630C3688DF80730036902934369A7
:1036D400054A0393054B684653F8213052F82110EC
:1036E400984705B05DF804FBB8040020C00400202E
:1036F400024B4FF4807043F001031847405400001C
:103704002DE9F047174690F80090324A42F82970A4
:10371400314A42F829304B7B80460C4663B3086833
:10372400496882008B0002F1A04203F1A04340F2F9
:103734000C65C2F800570126C3F800574FF0A045A6
:1037440006FA00F006FA01F1C5F80805C5F80815EF
:1037540040F20D61C2F80017C3F80017FFF7C8FF65
:103764004FF0000AD5F81025636822FA03F3DB074B
:103774000ED5BAF1000F1ED1002F184A4B4608BFD0
:103784003A46214608F10400BDE8F047FFF724BE9D
:10379400236806FA03F3C5F80C35FFF7A9FF23687D
:1037A40006FA03F3C5F808350AF1010AFFF7A0FF8A
:1037B400BAF1090FD6D1636801254FF0A04605FA86
:1037C40003F3C6F80C35FFF793FF63689D40C6F812
:1037D4000855D1E7C0040020B8040020B536000025
:1037E40000F1804000F5C040002382B0036003680C
:1037F4000193019B02B07047800000F1A040D0F813
:10380400002722F44032C0F80027D0F8003743EAFA
:103814000141C0F8001770472DE9FF470024574DB8
:1038240001944FF48072012102F1804303F5C043F7
:1038340090B21B68012B06D1D5F804330B4202D099
:10384400FFF7CEFF0C430432B2F5907F4FEA4101FB
:10385400EAD14B4B1B68012B0AD14FF4BE70FFF722
:10386400BFFF4FF0A04344F00044D3F81035019358
:1038740014F0FF0F1AD0434F01260025344210D014
:10388400AB0003F1804303F5C043D3F81005D3F82C
:10389400101557F8253023B1C1F30141C0F30420BA
:1038A40098470135082D4FEA4606E7D1002C62DA25
:1038B40000224FF0FF33CDE90223324F4FF00109CC
:1038C4000DF1080897F9443097F84440013324F087
:1038D400C00550D004AA02EBD50104F0070311F887
:1038E400042C09FA03F31A424FEAD50043D07A199B
:1038F400A40992F9242057F822603EB9032C3AD146
:1039040018F800201A4308F8002001E0032CF7D02F
:1039140005F5E0724FF0A04011F80C1C50F822207D
:103924001942C2F3014205D0022A24D1032C20D12A
:10393400214604E0032A1ED1032C1AD10221284671
:10394400FFF75AFF3EB14FF0010A21462846B0471F
:10395400BAF1000F0FD04FF0A043019AD3F81035FD
:10396400934208D00193029B0393ABE74FF0000A04
:10397400EBE7002EFAD104B0BDE8F0870060004008
:103984007C610040C804002000F18040002382B024
:10399400036003680193019B02B07047044A1379E2
:1039A40023B9012110609180184670478520704723
:1039B40014050020094B1A68D20706D4E02283F8C4
:1039C40000230122C3F880211A604FF080420123B2
:1039D400C2F81835024A1370704700BF00E100E0D6
:1039E4001C05002038B54FF48270FFF7CDFF4FF06F
:1039F40080430222C3F804230A4AD06840F080734B
:103A0400D360094B1C6844F0010119605D68596872
:103A1400491BB1F50A5FFAD31C60044BD060012244
:103A24001A6038BDF0ED00E0001000E0080000402E
:103A3400124B1B6810B573B14FF48070FFF7A4FFED
:103A44004FF080430122C3F808230D4B587910B975
:103A54005A711B6898470B4B1B6873B14FF4827003
:103A6400FFF792FF4FF080430222C3F80823044B70
:103A7400BDE810401B680120184710BD000100403C
:103A840014050020040100400023435082B0435831
:103A94000193019B02B07047F0B5204B4679204D4D
:103AA40043F8262006EB46037700EB5CA3BB90F9B2
:103AB400043002798C78002BA8BF03F1604C4FEAE4
:103AC4005313BCBF02F00F0EDFF858C04FEA441482
:103AD400A8BF0CF5614C4FEA8303E4B203F16043E1
:103AE400B4BF0CF80E408CF8004303F56143012485
:103AF40002F01F0204FA02F2C3F880211A6003687C
:103B04000A88C3F808253E44AB190A795A70AC55A3
:103B1400CA789A700020F0BD0820FCE72005002038
:103B24001D05002014ED00E090F904305A0910B589
:103B3400012120320A4C03F01F0301FA03F344F875
:103B440022300368074A5960C3F84823C3F808239E
:103B54004379054A03EB43030021D15410BD00BF50
:103B640000E100E003000F001D05002003680122AE
:103B74001A604379024A03EB43030221D15470478C
:103B84001D0500202DE9F04105464FF480340068FE
:103B94001C4E8C40C0F84843C0F8084395F805C053
:103BA4000CEB4C07374422F07F4297F8018001F573
:103BB400A8774FEA4C0E40F82720B8F1000F11D037
:103BC400D0F80485F4446644A8EB0207424588BF54
:103BD40007F1FF17B27888BF07F57F47974201DAEC
:103BE4000D200CE03BB15031890089B2FFF74CFF46
:103BF4002B68C3F804432B680020C3F84443BDE892
:103C0400F08100BF1D050020024610B500680C4677
:103C14004FF48071FFF738FF13680122C3F844237F
:103C24000CB1C3F8042310BD03680122C3F8482370
:103C3400C3F80823704700002DE9F041224E234FBA
:103C4400DFF88C8000254FF48034D7F8043306F570
:103C5400A041234289B20CD0336853B1C7F848431A
:103C64003846C7F80843FFF70FFFD8F80030E8B22A
:103C740098470135032D4FEA440406F10406E4D1C4
:103C84001248D0F80433DA070AD5D0F800313BB132
:103C94004FF48071FFF7F8FE0D4B04201B68984722
:103CA4000A48D0F804339B070CD5D0F804314BB143
:103CB4004FF48271FFF7E8FE054BBDE8F0411B6845
:103CC40005201847BDE8F08140B1004000B0004035
:103CD4002005002008B500F005F8BDE80840FFF70E
:103CE400A7BE00004FF0804310B5D3F8044361072A
:103CF40009D5D3F8082103F5847322B100221A6090
:103D04000D4B1B689847A20607D50C4B1A6822B1C5
:103D1400002018600A4B1B68984763060AD5094BB4
:103D24001A683AB100221A60054BBDE810401B68BE
:103D34000120184710BD00BF2405002014010040D5
:103D440028050020180100407F2805D8034B185C83
:103D5400034B5B5C184070470020704754540000CC
:103D6400D4540000A0F16103192B98BF2038704788
:103D7400A0F14103192B98BF203070477F2805D844
:103D8400034B185C034B5B5C184070470020704782
:103D940054540000D4540000A0F16103192B98BFBF
:103DA40020387047A0F14103192B98BF2030704789
:103DB4007F299ABF017001206FF02E0070475AB11D
:103DC4000A787F2A0AD800B102600021196059607C
:103DD400501A18BF01207047002070476FF02E0062
:103DE400704708B5037833B143681A7832B15A1C66
:103DF4004260187801E04368984708BD4FF0FF30EF
:103E0400FBE738B504460846A26842B123686168F6
:103E14005D1C8D4208BF00208B4208D2D054E36859
:103E24002BB121686268914201D2214698472368E8
:103E34000133236038BD70B54C1E09D41646C5B293
:103E440029463046FFF7DDFF013CB4F1FF3FF7D1CF
:103E540070BD10F0100F08D108B510F4007F14BF26
:103E640030202020FFF7E7FF08BD704708B5034B5B
:103E74005B689B681B68984708BD00BF1C00002056
:103E840008B50721FFF7F2FF08BD08B50621FFF7C3
:103E9400EDFF08BD08B50421FFF7E8FF08BD38B5FC
:103EA40004460D46FFF7F6FF30B1A4F13000A842F6
:103EB400A8BF4FF0FF3038BD2046FFF7E6FF10B132
:103EC400A4F15700F3E72046FFF7DAFF10B1A4F19D
:103ED4003700ECE74FF0FF30E9E708B50821FFF7BA
:103EE400C5FF08BD08B5034B5B689B685B689847D2
:103EF40008BD00BF1C000020054B1868054943F2AB
:103F0400390201FB00201860C0F30E40704700BF67
:103F1400300000206D4EC6410EB400B586B007AA2D
:103F240052F8041B05920390002304936FF000439E
:103F3400029301A800F0FEF806B05DF804EB03B0AC
:103F440070470EB400B584B005AA52F8041B019260
:103F540001238DF80830039002A800F083FD04B01B
:103F64005DF804EB03B07047037853B159B10144D1
:103F7400034613F8012F12B18B42FAD10B46181ADB
:103F840070470346FBE70346F9E7844640EA01032A
:103F940013F0030F18D18446202A0BD32DE9F00720
:103FA400B1E8F807A0E8F807A2F12002202AF7D226
:103FB400BDE8F007042A07D351F8043B40F8043B5A
:103FC400A2F10402042AF7D2002A05D011F8013B19
:103FD40000F8013B013AF9D1604670478446002A53
:103FE4002DD010F0030F04D000F8011B013A26D0A5
:103FF400F7E7C9B241EA012141EA0141202A12D37B
:10400400A2F120022DE9F0030B460C460D460E46A4
:104014000F4688468946A0E8FA03203AFBD2BDE859
:10402400F00320320BD0042A05D340F8041B043AD1
:1040340005D0042AF9D200F8011B013AFBD16046ED
:104044007047024610F0030F16D111F0030F13D17D
:104054002DE9F0004FF001374FF0803351F8044B55
:10406400A4EB070525EA04051D4002D142F8044BE0
:10407400F4E7A1F10401F0BC11F8013B02F8013BA3
:10408400002BF9D1704710F0030F19D111F0030F71
:1040940016D12DE970004FF001364FF0803350F8FF
:1040A400044B51F8045BAC4205D1A4EB060525EAA8
:1040B40004051D40F3D0A0F10400A1F1040170BC7B
:1040C40010F8012B11F8013BD21A01D1002BF7D1C2
:1040D4001046704700F1010110F0030F11D010F8E1
:1040E400012B002A23D010F0030F0AD010F8012B63
:1040F400002A1CD010F0030F03D010F8012B002A63
:1041040015D02DE970004FF001324FF0803350F894
:10411400044BA4EB020525EA04051D4000D1F6E793
:10412400A0F1040070BC10F8012B002AFBD1A0EB15
:10413400010070472DE9F04F89B007460392002330
:1041440003600C4614F8011B002900F00F83DFF80C
:1041540014B5FBE2002507E05E2868D145F48055DC
:1041640001E045F040051C46234613F8010B3028B6
:10417400F2D81F2837D9A0F12002102A33D801A180
:1041840051F822F067410000EB410000EB410000D0
:10419400CD410000EB410000EB410000EB41000089
:1041A400D3410000EB410000EB410000EB41000073
:1041B400D9410000EB410000DF410000EB41000069
:1041C400EB410000E541000045F08005CBE745F4F4
:1041D4000045C8E745F02005C5E745F01005C2E7EE
:1041E40045F40075BFE72A2821D1039A111D0391D4
:1041F400D2F800A0BAF1000FBCBFCAF1000A45F022
:1042040010051878A31C2AEAEA7A2E2826D0002161
:10421400742847D07A2845D06C2800F0A8804C2810
:1042240000F0AB80682800F0B8801C463DE0A0F1A7
:104234003002D2B2092A88BF4FF0000AE3D84FF007
:10424400000A0AEB8A0A303800EB4A0A13F8010B19
:10425400A0F13002D2B2092AF3D9D4E718782A2877
:104264000AD1039A111D0391116858780233002969
:10427400CEDB45F48075CBE70133A0F13002D2B236
:10428400092A88BF0021F4D8002101EB81013038CC
:1042940000EB410113F8010BA0F13002D2B2092A5C
:1042A400F3D9E4E71C4614F8010B002800F06A82F5
:1042B400A0F12503DBB2532B62D8A0F12503532BC5
:1042C4005ED8DFE813F076005D005D005D005D0000
:1042D4005D005D005D005D005D005D005D005D00F2
:1042E4005D005D005D005D005D005D005D005D00E2
:1042F4005D005D005D005D005D005D005D005D00D2
:104304005D005D005D005D005D005D005D005D00C1
:104314005D005D005D005D005D005D005D005D00B1
:104324005D005D005D005D005D005D00EB005D0013
:104334005D005D005D005D005D005D005D005D0091
:104344005D007B0020015D005D005D005D002001DB
:104354005D005D005D005D0095000E01D1005D0013
:104364005D00A6005D0019015D005D00ED001C46C6
:1043740014F8010B45F0010597E745F001051C46CB
:10438400B44B1E68002E00F0DE8103AB0193009154
:1043940053462A463946B047D5E11878682803D0F1
:1043A4005C1C45F0040580E745F008059C1C587822
:1043B4007BE725213846FFF724FDC4E1039B1A1D42
:1043C40003921E780AF1FF3A3A4651462846FFF70F
:1043D40040FD31463846FFF714FDA94619F0100F89
:1043E40000F0B1813A4651462020FFF724FDAAE1AE
:1043F40015F0080F06D03A68039B191D03911B683A
:104404001A70A0E1039B1A1D03921B683A681A6094
:1044140099E1039B1A1D0392D3F800808E4BB8F1E7
:10442400000F08BF9846464625F4007915F4807FAE
:1044340015D04046FFF798FD0546AAEB050A3A4613
:1044440051464846FFF705FD002DC7D0454416F8F0
:10445400011B3846FFF7D5FCAE42F8D1BEE7404613
:10446400FFF738FE0546E8E7039B1A1D03921B6815
:1044740015F0800F0CBF0026232645F48075082113
:104484001A46002B00F02C8105AB4FF0000805F410
:10449400005CA64660468C460146D1E045F40055D2
:1044A40015F0800F1BD043F2780643F258037828A6
:1044B40018BF1E4615F4807F01D025F4007515F44D
:1044C400804F32D0039B1A1D03921B6815F0040F12
:1044D4001FD01BB2002B20DA5B422D262DE00026D4
:1044E400E8E715F0800F0CBF0026302615F4807F16
:1044F400E5D025F40075E2E715F4807F07D025F4B4
:1045040000750026DBE745F480450026D7E7002642
:10451400D5E715F0080FDDD0DBB215F0200F60D120
:1045240015F0400F18BF202607E0039B1A1D0392C5
:104534001B6815F0040F4FD09BB215F4807F14BF95
:1045440025F4007501215838202800F2AE8001A21C
:1045540052F820F085440000AF460000AF4600004A
:10456400AF460000AF460000AF460000AF46000073
:10457400AF460000AF460000AF460000AF46000063
:10458400AF46000013460000AF460000AF460000EF
:10459400AF460000AF46000013460000AF460000DF
:1045A400AF460000AF460000AF460000AF46000033
:1045B400EB45000085440000AF460000AF46000014
:1045C400AF460000AF46000013460000AF460000AF
:1045D400AF4600008544000015F0080FADD0DBB2F3
:1045E400ABE72B26A9E71A464FF00008002B5ED054
:1045F40005A84FF0000803F00703303300F8013B2F
:1046040008F10108D2081346002AF4D14FE01846F5
:104614004FF00008002B4AD04FF0000805F4004E7C
:104624004FF02C0973468E4619462FE002F00F0016
:104634000A4C205C03F8010B08F10108120906D0AA
:104644000029F3D002F00F00054C205CF2E7744619
:1046540061462CE02C050020A85600008856000076
:1046640098560000CDCCCCCC08AB03EB080CABFBCC
:104674000032D20802EB8203A0EB430330330CF880
:104684000C3C08F1010809280DD910460029EBD08B
:1046940008F00303032BE7D108AB434403F80C9C55
:1046A40008F10108E0E7714601E04FF00008A1EBD2
:1046B400080121EAE179AAEB090AAAEB080AFF2E0C
:1046C40011D9AAF1020A15F4007F11D0C6F307210B
:1046D4003846FFF796FBF1B23846FFF792FB13E03A
:1046E4004FF00008E3E7002E4FD115F4007F0BD103
:1046F4003A4651462846FFF7ACFBFF2E98BF4FF0D1
:10470400000A2AD8002EE6D13A4651462846FFF739
:10471400A0FB3A4649463020FFF78DFBB8F1000F65
:104724000EDD0DF1140908F1FF38C84498F80010A3
:1047340046463846FFF765FBC14508F1FF38F5D119
:1047440015F0100F0CD114F8011B79B125293FF491
:1047540001AD3846FFF755FBF5E74FF0000AB5E722
:104764003A4651462020FFF766FBECE7BB682BB1C5
:104774003A6879688A423CBF00219954386809B084
:10478400BDE8F08F4FF0FF30F9E70AF1FF3A15F476
:10479400007FB7D1ACE700BF10B504460B7833B146
:1047A400B0F1FF3F05D04B68013B4B6001E08B68E3
:1047B4009847204610BD2DE9F04707460D46904620
:1047C40099464FF0FF3601363846FFF70AFB044698
:1047D400FFF783FB0028F6D1B4F1FF3F2FD018F088
:1047E400010834D12B681A1D2A60D3F800A0B9F14E
:1047F400000F26DD35464E440AE001353846FFF702
:10480400F0FA0446731B002B0CDDB0F1FF3F09D016
:104814002046FFF762FB28B9B8F1000FEDD10AF882
:10482400014BEAE739462046FFF7B6FFB8F1000F1F
:1048340002D100238AF800302846BDE8F0872546D7
:10484400FAE739462046FFF7A7FF3546F1E7B9F105
:10485400000FC8BF4FF0000ACCDC39462046FFF7F2
:104864009BFF3546E8E72DE9F84306461F46DDF889
:10487400209012F001051AD10B681A1D0A60D3F8B2
:1048840000803046FFF7ADFAB0F1FF3F36D0002F7D
:1048940027DDFF2830D8430900F01F0459F82330DE
:1048A40043FA04F414F001041CD0002414E04FF083
:1048B4000008E6E701343046FFF793FAA74211D027
:1048C400FF280FD8430900F01F0159F8233043FA99
:1048D40001F111F0010F05D0002DEBD108F8010B07
:1048E400E8E700243146FFF757FF15B9002388F89D
:1048F40000302046BDE8F8830024F3E70446F8E7D7
:104904002DE9F04F83B08046009192461F46DDF8B2
:1049140030B04FF0FF352E4601354046FFF761FABF
:104924000446FFF7DAFA0028F5D1B4F1FF3F56D078
:104934002AF4C069BBF1000F56DD1AF0800F0FD0C6
:104944002B2C03D02D2C0BD149F48069B51C404687
:10495400FFF747FA04460BF1FF3BBBF1000F43DDC1
:10496400302C03D0002F41D10A2742E049F40073D0
:1049740001930BF1FF3605F1010A4046FFF731FAC6
:104984000446002E03DD20F02003582B07D0002F0F
:1049940008BF08275546B346DDF8049026E037F0F3
:1049A400100304D05546B346DDF8049021E0ABF182
:1049B400020605F1020A4046FFF713FA0446CDF851
:1049C40004901027E6E72E464FF0000A27E019F07E
:1049D400080F14BFA3F800A0C3F800A03AE02646CD
:1049E40038E06FF0010635E0C7BB0A27BBF1000FC2
:1049F400E9DD2E464FF0000A5D4439462046FFF7B4
:104A04004EFA00280BDB49F400790AFB070A013649
:104A14004046FFF7E6F90446AB1B002BEDDC4146AC
:104A24002046FFF7B9FE19F4007FDAD019F0010F20
:104A340010D100990B681A1D0A601B6809F4906272
:104A4400B2F5906F08BFCAF1000A19F0100FBED07A
:104A540083F800A0304603B0BDE8F08F2E464FF037
:104A6400000ADCE72DE9F04F8DB081460C46039235
:104A74004FF0000AD346274617F8015B8DB1252D68
:104A840033D02846FFF729FA78B94846FFF7A9F941
:104A94000446854220D04946FFF77EFEB4F1FF3F2D
:104AA4001ED058460DB0BDE8F08F3C4617F8010BF8
:104AB400FFF713FA0028F8D101E00AF1010A484689
:104AC400FFF78FF90546FFF708FA0028F5D14946A4
:104AD4002846FFF761FECEE70AF1010A3C46CAE721
:104AE400BBF1000F08BFA346DBE763782A2B06BFA0
:104AF400A71C4FF001084FF00008002607E006EB62
:104B04008606303D05EB460648F0200827463C461D
:104B140014F8015B2846FFF7BDF902900028EED196
:104B240018F0200F08BF6FF000464C2D00F0B28043
:104B3400682D00F0B480253D532DB2D801A353F85D
:104B440025F000BFBB4C0000A74A0000A74A0000A4
:104B5400A74A0000A74A0000A74A0000A74A00008D
:104B6400A74A0000A74A0000A74A0000A74A00007D
:104B7400A74A0000A74A0000A74A0000A74A00006D
:104B8400A74A0000A74A0000A74A0000A74A00005D
:104B9400A74A0000A74A0000A74A0000A74A00004D
:104BA400A74A0000A74A0000A74A0000A74A00003D
:104BB400A74A0000A74A0000A74A0000A74A00002D
:104BC400A74A0000A74A0000A74A0000A74A00001D
:104BD400A74A0000A74A0000A74A0000A74A00000D
:104BE400A74A0000A74A0000A74A0000A74A0000FD
:104BF400A74A0000A74A0000A74A0000A74A0000ED
:104C0400A74A0000A74A0000A74A0000A74A0000DC
:104C1400F54D0000A74A0000A74A0000074E000017
:104C2400A74A0000A74A0000A74A0000A74A0000BC
:104C3400A74A0000A74A0000A74A0000E54C00006C
:104C44004F4D0000A74A0000A74A0000A74A0000F1
:104C5400A74A0000734D0000A74A0000A74A0000BD
:104C6400A74A0000A74A0000854D0000B14D00008E
:104C7400C34D0000A74A0000A74A0000D54D00001C
:104C8400A74A0000E34D0000A74A0000A74A00001D
:104C9400F54D0000257848F04408BC1C4BE7257806
:104CA400682D03D0BC1C48F0080844E748F01008FD
:104CB400657802343FE74846FFF793F80546252810
:104CC4000BD04946FFF768FDB5F1FF3F7FF4E9AE2D
:104CD400BBF1000F08BFAB46E3E60AF1010ACAE6DE
:104CE40018F0200F00F0CD8018F001080CD1039BC0
:104CF4001A1D03921D68002E3FF4D3AE002E1DDD55
:104D040056440CE00126F2E7CDF808800025F2E7CE
:104D1400BBF1000F08BF8346C3E6B2450DD00AF1CC
:104D2400010A4846FFF75DF8B0F1FF3FF0D0029B5F
:104D3400002BF2D105F8010BEFE7B246029B002BE2
:104D44007FF499AE0BF1010B95E600960A2348F027
:104D5400800203A94846FFF7D3FD0028C0F28880EB
:104D640018F0010F08BF0BF1010B824483E6009693
:104D7400002348F0800203A94846FFF7C1FDECE791
:104D840018F0010F7FF477AE039B1A1D03921B6882
:104D940018F0100F02D083F800A06CE618F0080F8A
:104DA40014BFA3F800A0C3F800A064E6009608238B
:104DB40048F0800203A94846FFF7A2FDCDE700961C
:104DC400102328F01E0203A94846FFF799FDC4E703
:104DD4003346424603A94846FFF7EDFCBDE700967B
:104DE4000A2348F0800203A94846FFF789FDB4E787
:104DF4000096102348F0800203A94846FFF780FD7F
:104E0400ABE725785E2D25D001342022002104A8AB
:104E1400FFF7E4F8002D3FF444AE6A090CAB03EB52
:104E2400820205F01F03012101FA03F352F8201C4A
:104E34000B4342F8203C14F8015B5D2DEAD1029B40
:104E44006BB904AB00933346424603A94846FFF7C7
:104E54000AFD82E76578023401230293D5E703ABA8
:104E64000BA953F8042FD2431A608B42F9D1E8E717
:104E7400B0F1FF3F7FF415AEBBF1000F08BF8346CE
:104E84000FE618F001063FF43DAF0296002537E720
:104E94006572726F72200D0A00253130732025640B
:104EA4000020696E636F6D70617469626C65206D5A
:104EB4006F6465002066756E6374696F6E0054419B
:104EC400474944202573002573200D0A004A5325C1
:104ED400303458007B22496E666F223A7B0D0A00FB
:104EE40022446576696365223A224D44454B31304C
:104EF40030312054446F4120546167222C0D0A0044
:104F04002256657273696F6E223A222573222C0D24
:104F14000A0031363A33333A3433004F6374202075
:104F240032203230323000224275696C64223A22D7
:104F34002573202573222C0D0A004457313030305C
:104F440020446576696365204472697665722056EB
:104F5400657273696F6E2030342E30322E30320019
:104F640022447269766572223A222573227D7D007D
:104F7400342E302E30007B2255574220504152416E
:104F84004D223A7B0D0A00224348414E223A2564C1
:104F94002C0D0A0022505246223A25642C0D0A0098
:104FA40022504C454E223A25642C0D0A00224441DD
:104FB400544152415445223A25642C0D0A0022548E
:104FC40058434F4445223A25642C0D0A002250418F
:104FD40043223A25642C0D0A00224E5353464422A0
:104FE4003A25642C0D0A00225048524D4F44452264
:104FF4003A25642C0D0A0022534D415254504F5708
:105004004552223A25642C0D0A0022424C494E4B4B
:1050140046415354223A25642C0D0A0022424C493D
:105024004E4B534C4F57223A25642C0D0A00225202
:10503400414E444F4D4E455353223A25642C0D0A9C
:1050440000225441474944534554223A25642C0DC7
:105054000A00225441474944223A307825303278B4
:105064002530327825303278253032782530327840
:105074002530327825303278253032787D7D0053E2
:105084005441540048454C50005341564500434850
:10509400414E0050524600504C454E005041430092
:1050A4005458434F4445004E5353464400444154DE
:1050B4004152415445005048524D4F4445005346D7
:1050C40044544F00534D415254504F574552454E4E
:1050D40000424C494E4B4641535400424C494E4BBE
:1050E400534C4F570052414E444F4D4E455353007D
:1050F4005441474944005441474944534554006F7F
:105104006B0D0A00835000000000000045090000F8
:1051140088500000000000004D0600008D50000083
:10512400000000008906000092500000000000000A
:10513400850500009750000000000000A105000054
:105144009B50000000000000BD050000A0500000BE
:1051540000000000D9050000A45000000000000079
:1051640001050000AB500000000000001105000024
:10517400B150000000000000F5050000BA50000026
:105184000000000021050000C250000000000000E3
:1051940031050000C8500000000000003D0500007B
:1051A400D5500000000000004D050000DF50000055
:1051B4000000000059050000E95000000000000054
:1051C40065050000F4500000000000001106000016
:1051D400FA5000000000000071050000000000000B
:1051E40000000000000000001B5B4B004572726F62
:1051F400723A200D0A0000000B00000005000000B8
:1052040006000000070000000000000000E0D701D5
:10521400101412FF06FF0000000000200000000030
:10522400101412FF06FF00000000008000000000C0
:1052340000000741000000000B0000000500000012
:1052440006000000070000000000000000E0D70195
:105254000000000000000000000000000338FDD83A
:105264007047000000B000400B0003000000000085
:1052740000300040000000000000000001000000B9
:1052840000400040000000000000000007A90225C3
:1052940070889B8800000102030400053C001A3159
:1052A40052001A339A001A351D011A376B003B312C
:1052B400BE003B335E013B3596023B3787008D00D1
:1052C40040100800070400090805400809104008B8
:1052D400080540081D0400081D0400081E26562663
:1052E400BEBE000098599859EA518E421E45142EAC
:1052F4000080EA51F4283233E03A703DE03AC23596
:10530400842BC2353233C235C235AE47E03A503809
:10531400A2305038D8BC0A00160001000600010073
:1053240002000000405C0000A05C0400C06C0800A7
:10533400805C0400E03F1E00E07D1E0000000000D1
:105344000001CADE000000000000000000000000B0
:10535400C90000007555351567472707C2000000CE
:105364007555351567472707C50000006F4F2F0F88
:105374008B6B4B2B950000005F3F1F1F9A7A5A3AA4
:10538400C00000004828080E85654525000000007F
:1053940000000000000000009300000092725232EE
:1053A400D1B17151010203FF0508102040004000F3
:1053B400FFFFFFFFFFFF0004FFFFFFFFFFFFFFFFF3
:1053C400FFFFFFFFFFFFFFFFFFFFFFFFFFFF800067
:1053D400FFFFFFFFFFFF0006FFFFFFFFFFFFFFFFD1
:1053E400FFFFFFFFFFFFFFFFFFFFFFFFFFFF0001C6
:1053F400FFFFFFFFFFFF0008FFFFFFFFFFFFFFFFAF
:10540400FFFFFFFFFFFFFFFFFFFFFFFFFFFF0002A4
:105414006E0052039A1A0000FFFFFFFFFFFFFFFF19
:10542400FFFFFFFFFFFFFFFF000000000000000080
:105434000000D60107000000000000000338FDD87A
:105444007047000043000000504F534958000000CB
:1054540020202020202020202068282828282020E0
:105464002020202020202020202020202020202038
:1054740048101010101010101010101010101010F0
:105484008484848484848484848410101010101090
:1054940010818181818181010101010101010101E9
:1054A400010101010101010101010110101010109D
:1054B40010828282828282020202020202020202BA
:1054C4000202020202020202020202101010102062
:1054D4000007032004170201085710408000000051
:1054E400485400004C5500006056000053756E008F
:1054F4004D6F6E00547565005765640054687500FF
:105504004672690053617400000000004A616E0035
:10551400466562004D617200417072004D61790010
:105524004A756E004A756C004175670053657000DA
:105534004F6374004E6F7600446563000000000002
:10554400414D00504D00000084560000805600007C
:1055540080560000805600008056000080560000EF
:1055640080560000805600008056000080560000DF
:10557400FFFFFFFFFFFFFFFFFFFFFFFFFFFF000035
:10558400C0550000F0540000FC5500001055000008
:1055940044550000A455000054560000B0550000C6
:1055A400256D2F25642F2579000000002561202515
:1055B40062202565202554202559000053756E640A
:1055C4006179004D6F6E646179005475657364612F
:1055D40079005765646E6573646179005468757207
:1055E400736461790046726964617900536174750A
:1055F40072646179000000004A616E75617279001D
:105604004665627275617279004D6172636800412A
:105614007072696C004D6179004A756E65004A7557
:105624006C79004175677573740053657074656DAA
:10563400626572004F63746F626572004E6F7665C7
:105644006D62657200446563656D62657200000099
:1056540025483A254D3A2553000000004D3D0000F1
:10566400693D0000753D0000813D00009D3D000046
:10567400A93D0000B53D0000C33D0000000000004E
:105684002E00000030313233343536373839616218
:1056940063646566303132333435363738394142E4
:0B56A40043444546286E756C6C2900DD
:1056B0000100000001000000340300200000000091
:1056C00000200040000000000090D003E4540000DF
:1056D000E4540000E4540000E4540000E4540000EA
:0456E00001000000C5
:0200000270008C
:10000000020214000909000200004110640000000F
:10001000881300000A00000001000000000000003A
:100020000000004457313030302044657669636504
:10003000204472697665722056657273696F6E200E
:1000400030342E30322E303200000000000000002C
:1000500000000000000000000000000000000000A0
:100060000000000000000000000000000000000090
:100070000000000000000000000000000000000080
:100080000000000000000000000000000000000070
:100090000000000000000000000000000000000060
:1000A0000000000000000000000000000000000050
:1000B0000000000000000000000000000000000040
:1000C0000000000000000000000000000000000030
:1000D0000000000000000000000000000000000020
:1000E0000000000000000000000000000000000010
:1000F0000000000000000000000000000000000000
:040000030000037581
:00000001FF
